{
  "_format": "hh3-artifact-1",
  "contractName": "DocRegisterDocument",
  "sourceName": "contracts/DocRegisterDocument.sol",
  "abi": [
    {
      "inputs": [
        {
          "internalType": "address",
          "name": "_tokenNft",
          "type": "address"
        },
        {
          "internalType": "address",
          "name": "_token",
          "type": "address"
        },
        {
          "internalType": "address",
          "name": "_staking",
          "type": "address"
        }
      ],
      "stateMutability": "nonpayable",
      "type": "constructor"
    },
    {
      "inputs": [
        {
          "internalType": "address",
          "name": "owner",
          "type": "address"
        }
      ],
      "name": "OwnableInvalidOwner",
      "type": "error"
    },
    {
      "inputs": [
        {
          "internalType": "address",
          "name": "account",
          "type": "address"
        }
      ],
      "name": "OwnableUnauthorizedAccount",
      "type": "error"
    },
    {
      "inputs": [],
      "name": "ReentrancyGuardReentrantCall",
      "type": "error"
    },
    {
      "anonymous": false,
      "inputs": [
        {
          "indexed": true,
          "internalType": "address",
          "name": "user",
          "type": "address"
        },
        {
          "indexed": false,
          "internalType": "uint256",
          "name": "tokenId",
          "type": "uint256"
        }
      ],
      "name": "DocumentRegistred",
      "type": "event"
    },
    {
      "anonymous": false,
      "inputs": [
        {
          "indexed": true,
          "internalType": "address",
          "name": "previousOwner",
          "type": "address"
        },
        {
          "indexed": true,
          "internalType": "address",
          "name": "newOwner",
          "type": "address"
        }
      ],
      "name": "OwnershipTransferred",
      "type": "event"
    },
    {
      "anonymous": false,
      "inputs": [
        {
          "indexed": true,
          "internalType": "address",
          "name": "user",
          "type": "address"
        },
        {
          "indexed": false,
          "internalType": "uint256",
          "name": "tokens",
          "type": "uint256"
        }
      ],
      "name": "RewardPlatformClaim",
      "type": "event"
    },
    {
      "inputs": [],
      "name": "claimRewardOfPlatform",
      "outputs": [],
      "stateMutability": "nonpayable",
      "type": "function"
    },
    {
      "inputs": [
        {
          "internalType": "uint256",
          "name": "",
          "type": "uint256"
        }
      ],
      "name": "documents",
      "outputs": [
        {
          "internalType": "address",
          "name": "signer",
          "type": "address"
        },
        {
          "internalType": "bytes",
          "name": "signature",
          "type": "bytes"
        }
      ],
      "stateMutability": "view",
      "type": "function"
    },
    {
      "inputs": [],
      "name": "owner",
      "outputs": [
        {
          "internalType": "address",
          "name": "",
          "type": "address"
        }
      ],
      "stateMutability": "view",
      "type": "function"
    },
    {
      "inputs": [
        {
          "internalType": "uint256",
          "name": "_hash",
          "type": "uint256"
        },
        {
          "internalType": "bytes",
          "name": "_sig",
          "type": "bytes"
        }
      ],
      "name": "recoverSigner",
      "outputs": [
        {
          "internalType": "address",
          "name": "",
          "type": "address"
        }
      ],
      "stateMutability": "view",
      "type": "function"
    },
    {
      "inputs": [
        {
          "internalType": "bytes32",
          "name": "_hash",
          "type": "bytes32"
        },
        {
          "internalType": "string",
          "name": "_cid",
          "type": "string"
        },
        {
          "internalType": "bytes",
          "name": "_sig",
          "type": "bytes"
        }
      ],
      "name": "registerDocument",
      "outputs": [],
      "stateMutability": "nonpayable",
      "type": "function"
    },
    {
      "inputs": [],
      "name": "renounceOwnership",
      "outputs": [],
      "stateMutability": "nonpayable",
      "type": "function"
    },
    {
      "inputs": [
        {
          "internalType": "address",
          "name": "_dao",
          "type": "address"
        }
      ],
      "name": "setDaoAddress",
      "outputs": [],
      "stateMutability": "nonpayable",
      "type": "function"
    },
    {
      "inputs": [
        {
          "internalType": "uint256",
          "name": "_tokens",
          "type": "uint256"
        }
      ],
      "name": "setTaxToken",
      "outputs": [],
      "stateMutability": "nonpayable",
      "type": "function"
    },
    {
      "inputs": [
        {
          "internalType": "address",
          "name": "newOwner",
          "type": "address"
        }
      ],
      "name": "transferOwnership",
      "outputs": [],
      "stateMutability": "nonpayable",
      "type": "function"
    },
    {
      "inputs": [
        {
          "internalType": "uint256",
          "name": "_hash",
          "type": "uint256"
        }
      ],
      "name": "validateDocument",
      "outputs": [
        {
          "internalType": "bool",
          "name": "",
          "type": "bool"
        }
      ],
      "stateMutability": "view",
      "type": "function"
    }
  ],
  "bytecode": "0x6080604052678ac7230489e8000060045534801561001b575f5ffd5b5060405161140338038061140383398101604081905261003a91610137565b60017f9b779b17422d0df92223018b32b4d1fa46e071723d6817e2486d003becc55f0055338061008357604051631e4fbdf760e01b81525f600482015260240160405180910390fd5b61008c816100cd565b50600580546001600160a01b03199081166001600160a01b039384161790915560028054821694831694909417909355600380549093169116179055610177565b5f80546001600160a01b038381166001600160a01b0319831681178455604051919092169283917f8be0079c531659141344cd1fd0a4f28419497f9722a3daafe3b4186f6b6457e09190a35050565b80516001600160a01b0381168114610132575f5ffd5b919050565b5f5f5f60608486031215610149575f5ffd5b6101528461011c565b92506101606020850161011c565b915061016e6040850161011c565b90509250925092565b61127f806101845f395ff3fe608060405234801561000f575f5ffd5b506004361061009b575f3560e01c8063958c22bd11610063578063958c22bd146100fd5780639a3cac6a14610120578063c2ed2b0514610133578063ebd1b1a114610154578063f2fde38b14610167575f5ffd5b806361d9cfea1461009f57806363ee9029146100c85780636a243d5b146100d2578063715018a6146100e55780638da5cb5b146100ed575b5f5ffd5b6100b26100ad366004610e80565b61017a565b6040516100bf9190610ec4565b60405180910390f35b6100d06102a2565b005b6100d06100e0366004610ed8565b610477565b6100d06106b8565b5f546001600160a01b03166100b2565b61011061010b366004610f58565b6106c9565b60405190151581526020016100bf565b6100d061012e366004610f6f565b6107b2565b610146610141366004610f58565b6107dc565b6040516100bf929190610fc3565b6100d0610162366004610f58565b610889565b6100d0610175366004610f6f565b610960565b5f5f8333306040516020016101b893929190928352606091821b6bffffffffffffffffffffffff199081166020850152911b16603482015260480190565b6040516020818303038152906040528051906020012090505f8160405160200161020e91907f19457468657265756d205369676e6564204d6573736167653a0a3332000000008152601c810191909152603c0190565b6040516020818303038152906040528051906020012090505f5f5f6102328761099d565b604080515f81526020810180835289905260ff8316918101919091526060810184905260808101839052929550909350915060019060a0016020604051602081039080840390855afa15801561028a573d5f5f3e3d5ffd5b50505060206040510351955050505050505b92915050565b6102aa610a02565b6102b2610a2e565b6003546040516370a0823160e01b81525f916001600160a01b0316906370a08231906102e2903090600401610ec4565b602060405180830381865afa1580156102fd573d5f5f3e3d5ffd5b505050506040513d601f19601f820116820180604052508101906103219190610fee565b90505f811161036d5760405162461bcd60e51b81526020600482015260136024820152722737903a37b5b2b739903a379031b630b4b69760691b60448201526064015b60405180910390fd5b6003545f906001600160a01b031663a9059cbb6103915f546001600160a01b031690565b6040516001600160e01b031960e084901b1681526001600160a01b039091166004820152602481018590526044016020604051808303815f875af11580156103db573d5f5f3e3d5ffd5b505050506040513d601f19601f820116820180604052508101906103ff9190611005565b90508061041e5760405162461bcd60e51b815260040161036490611024565b5f546001600160a01b03166001600160a01b03167f7eb60df093b2662d0c1d3b75efc3d30e5856b78fa82f3f0265c5f9d42e839edf8360405161046391815260200190565b60405180910390a25050610475610a49565b565b61047f610a2e565b600354604051636eb1769f60e11b81523360048201523060248201525f916001600160a01b03169063dd62ed3e90604401602060405180830381865afa1580156104cb573d5f5f3e3d5ffd5b505050506040513d601f19601f820116820180604052508101906104ef9190610fee565b905060045481101561055a5760405162461bcd60e51b815260206004820152602e60248201527f496e73756666696369656e7420746f6b656e7320746f20636f6d706c6574652060448201526d3a34329037b832b930ba34b7b71760911b6064820152608401610364565b835f610566828561017a565b90506001600160a01b03811633146105b25760405162461bcd60e51b815260206004820152600f60248201526e29b4b3b732b91034b73b30b634b21760891b6044820152606401610364565b6105ba610a56565b6002546040516334ff261960e21b81526001600160a01b039091169063d3fc9864906105ee90339086908a9060040161105b565b5f604051808303815f87803b158015610605575f5ffd5b505af1158015610617573d5f5f3e3d5ffd5b50506040805180820182526001600160a01b03858116825260208083018a81525f89815260019283905294909420835181546001600160a01b03191693169290921782559251919450925090820190610670908261110d565b50506040518381523391507f4a15de02ff8e608ba80c2e8a0c033ccada323c4a1733463b7faced17ee2403ab9060200160405180910390a25050506106b3610a49565b505050565b6106c0610a02565b6104755f610c8e565b5f818152600160208181526040808420815180830190925280546001600160a01b031682529283018054869486949092908401916107069061108a565b80601f01602080910402602001604051908101604052809291908181526020018280546107329061108a565b801561077d5780601f106107545761010080835404028352916020019161077d565b820191905f5260205f20905b81548152906001019060200180831161076057829003601f168201915b50505050508152505090505f61079783836020015161017a565b91516001600160a01b03928316921691909114949350505050565b6107ba610a02565b600680546001600160a01b0319166001600160a01b0392909216919091179055565b600160208190525f9182526040909120805491810180546001600160a01b03909316926108089061108a565b80601f01602080910402602001604051908101604052809291908181526020018280546108349061108a565b801561087f5780601f106108565761010080835404028352916020019161087f565b820191905f5260205f20905b81548152906001019060200180831161086257829003601f168201915b5050505050905082565b6006546001600160a01b031633146108ed5760405162461bcd60e51b815260206004820152602160248201527f4f6e6c792044414f20616c6c6f7765642063616c6c2074686973206d6574686f6044820152601960fa1b6064820152608401610364565b5f81116109485760405162461bcd60e51b8152602060048201526024808201527f5468652076616c7565206d7573742062652067726561746572207468616e207a60448201526332b9379760e11b6064820152608401610364565b61095a81670de0b6b3a76400006111dc565b60045550565b610968610a02565b6001600160a01b038116610991575f604051631e4fbdf760e01b81526004016103649190610ec4565b61099a81610c8e565b50565b5f5f5f83516041146109e55760405162461bcd60e51b8152602060048201526011602482015270696e76616c6964207369676e617475726560781b6044820152606401610364565b5050506020810151604082015160609092015190925f9190911a90565b5f546001600160a01b03163314610475573360405163118cdaa760e01b81526004016103649190610ec4565b610a36610cdd565b6002610a46610a43610d03565b90565b55565b6001610a46610a43610d03565b600554604080516305977be960e21b815290515f926001600160a01b03169163165defa49160048083019260209291908290030181865afa158015610a9d573d5f5f3e3d5ffd5b505050506040513d601f19601f82011682018060405250810190610ac19190610fee565b9050805f03610ad25761099a610d27565b5f60646004546002610ae491906111dc565b610aee91906111f3565b90505f81600454610aff9190611212565b6003546040516323b872dd60e01b81529192505f916001600160a01b03909116906323b872dd90610b3890339030908890600401611225565b6020604051808303815f875af1158015610b54573d5f5f3e3d5ffd5b505050506040513d601f19601f82011682018060405250810190610b789190611005565b905080610b975760405162461bcd60e51b815260040161036490611024565b6003546005546040516323b872dd60e01b81526001600160a01b03928316926323b872dd92610bd0923392909116908790600401611225565b6020604051808303815f875af1158015610bec573d5f5f3e3d5ffd5b505050506040513d601f19601f82011682018060405250810190610c109190611005565b905080610c2f5760405162461bcd60e51b815260040161036490611024565b6005546040516360993b5b60e01b8152600481018490526001600160a01b03909116906360993b5b906024015f604051808303815f87803b158015610c72575f5ffd5b505af1158015610c84573d5f5f3e3d5ffd5b5050505050505050565b5f80546001600160a01b038381166001600160a01b0319831681178455604051919092169283917f8be0079c531659141344cd1fd0a4f28419497f9722a3daafe3b4186f6b6457e09190a35050565b610ce5610dbb565b1561047557604051633ee5aeb560e01b815260040160405180910390fd5b7f9b779b17422d0df92223018b32b4d1fa46e071723d6817e2486d003becc55f0090565b600354600480546040516323b872dd60e01b81525f936001600160a01b0316926323b872dd92610d5c92339230929101611225565b6020604051808303815f875af1158015610d78573d5f5f3e3d5ffd5b505050506040513d601f19601f82011682018060405250810190610d9c9190611005565b90508061099a5760405162461bcd60e51b815260040161036490611024565b5f6002610dc9610a43610d03565b5414919050565b634e487b7160e01b5f52604160045260245ffd5b5f5f67ffffffffffffffff841115610dfe57610dfe610dd0565b50604051601f19601f85018116603f0116810181811067ffffffffffffffff82111715610e2d57610e2d610dd0565b604052838152905080828401851015610e44575f5ffd5b838360208301375f60208583010152509392505050565b5f82601f830112610e6a575f5ffd5b610e7983833560208501610de4565b9392505050565b5f5f60408385031215610e91575f5ffd5b82359150602083013567ffffffffffffffff811115610eae575f5ffd5b610eba85828601610e5b565b9150509250929050565b6001600160a01b0391909116815260200190565b5f5f5f60608486031215610eea575f5ffd5b83359250602084013567ffffffffffffffff811115610f07575f5ffd5b8401601f81018613610f17575f5ffd5b610f2686823560208401610de4565b925050604084013567ffffffffffffffff811115610f42575f5ffd5b610f4e86828701610e5b565b9150509250925092565b5f60208284031215610f68575f5ffd5b5035919050565b5f60208284031215610f7f575f5ffd5b81356001600160a01b0381168114610e79575f5ffd5b5f81518084528060208401602086015e5f602082860101526020601f19601f83011685010191505092915050565b6001600160a01b03831681526040602082018190525f90610fe690830184610f95565b949350505050565b5f60208284031215610ffe575f5ffd5b5051919050565b5f60208284031215611015575f5ffd5b81518015158114610e79575f5ffd5b6020808252601b908201527f4572726f72207768656e206d616b696e67207472616e736665722e0000000000604082015260600190565b60018060a01b0384168152826020820152606060408201525f6110816060830184610f95565b95945050505050565b600181811c9082168061109e57607f821691505b6020821081036110bc57634e487b7160e01b5f52602260045260245ffd5b50919050565b601f8211156106b357805f5260205f20601f840160051c810160208510156110e75750805b601f840160051c820191505b81811015611106575f81556001016110f3565b5050505050565b815167ffffffffffffffff81111561112757611127610dd0565b61113b81611135845461108a565b846110c2565b6020601f82116001811461116d575f83156111565750848201515b5f19600385901b1c1916600184901b178455611106565b5f84815260208120601f198516915b8281101561119c578785015182556020948501946001909201910161117c565b50848210156111b957868401515f19600387901b60f8161c191681555b50505050600190811b01905550565b634e487b7160e01b5f52601160045260245ffd5b808202811582820484141761029c5761029c6111c8565b5f8261120d57634e487b7160e01b5f52601260045260245ffd5b500490565b8181038181111561029c5761029c6111c8565b6001600160a01b03938416815291909216602082015260408101919091526060019056fea2646970667358221220c1e4525fc115d810a08687381706832192af10a6bf246ba1ee05b4f01f28ee0564736f6c634300081c0033",
  "linkReferences": {},
  "deployedLinkReferences": {},
  "immutableReferences": {},
  "inputSourceName": "project/contracts/DocRegisterDocument.sol",
  "buildInfoId": "solc-0_8_28-12cf6351062c2901ebc9457afea34be2ad900f64"
}