{
  "_format": "hh3-artifact-1",
  "contractName": "DocStaking",
  "sourceName": "contracts/DocStaking.sol",
  "abi": [
    {
      "inputs": [
        {
          "internalType": "address",
          "name": "_token",
          "type": "address"
        },
        {
          "internalType": "address",
          "name": "_voteToken",
          "type": "address"
        }
      ],
      "stateMutability": "nonpayable",
      "type": "constructor"
    },
    {
      "inputs": [
        {
          "internalType": "address",
          "name": "owner",
          "type": "address"
        }
      ],
      "name": "OwnableInvalidOwner",
      "type": "error"
    },
    {
      "inputs": [
        {
          "internalType": "address",
          "name": "account",
          "type": "address"
        }
      ],
      "name": "OwnableUnauthorizedAccount",
      "type": "error"
    },
    {
      "inputs": [],
      "name": "ReentrancyGuardReentrantCall",
      "type": "error"
    },
    {
      "anonymous": false,
      "inputs": [
        {
          "indexed": true,
          "internalType": "address",
          "name": "previousOwner",
          "type": "address"
        },
        {
          "indexed": true,
          "internalType": "address",
          "name": "newOwner",
          "type": "address"
        }
      ],
      "name": "OwnershipTransferred",
      "type": "event"
    },
    {
      "anonymous": false,
      "inputs": [
        {
          "indexed": true,
          "internalType": "address",
          "name": "user",
          "type": "address"
        },
        {
          "indexed": false,
          "internalType": "uint256",
          "name": "value",
          "type": "uint256"
        }
      ],
      "name": "RewardClaim",
      "type": "event"
    },
    {
      "anonymous": false,
      "inputs": [
        {
          "indexed": true,
          "internalType": "address",
          "name": "user",
          "type": "address"
        },
        {
          "indexed": false,
          "internalType": "uint256",
          "name": "value",
          "type": "uint256"
        }
      ],
      "name": "StakingTokens",
      "type": "event"
    },
    {
      "anonymous": false,
      "inputs": [
        {
          "indexed": true,
          "internalType": "address",
          "name": "user",
          "type": "address"
        },
        {
          "indexed": false,
          "internalType": "uint256",
          "name": "value",
          "type": "uint256"
        }
      ],
      "name": "UnstakingTokens",
      "type": "event"
    },
    {
      "inputs": [],
      "name": "claim",
      "outputs": [],
      "stateMutability": "nonpayable",
      "type": "function"
    },
    {
      "inputs": [],
      "name": "getReward",
      "outputs": [
        {
          "internalType": "uint256",
          "name": "",
          "type": "uint256"
        }
      ],
      "stateMutability": "view",
      "type": "function"
    },
    {
      "inputs": [],
      "name": "getStaking",
      "outputs": [
        {
          "internalType": "uint256",
          "name": "",
          "type": "uint256"
        }
      ],
      "stateMutability": "view",
      "type": "function"
    },
    {
      "inputs": [
        {
          "internalType": "uint256",
          "name": "_tokens",
          "type": "uint256"
        }
      ],
      "name": "notifyReward",
      "outputs": [],
      "stateMutability": "nonpayable",
      "type": "function"
    },
    {
      "inputs": [],
      "name": "owner",
      "outputs": [
        {
          "internalType": "address",
          "name": "",
          "type": "address"
        }
      ],
      "stateMutability": "view",
      "type": "function"
    },
    {
      "inputs": [],
      "name": "renounceOwnership",
      "outputs": [],
      "stateMutability": "nonpayable",
      "type": "function"
    },
    {
      "inputs": [
        {
          "internalType": "address",
          "name": "_registerDocumentAddress",
          "type": "address"
        }
      ],
      "name": "setAddressRegisterDocument",
      "outputs": [],
      "stateMutability": "nonpayable",
      "type": "function"
    },
    {
      "inputs": [
        {
          "internalType": "uint256",
          "name": "_tokens",
          "type": "uint256"
        }
      ],
      "name": "stake",
      "outputs": [],
      "stateMutability": "nonpayable",
      "type": "function"
    },
    {
      "inputs": [],
      "name": "totalStaking",
      "outputs": [
        {
          "internalType": "uint256",
          "name": "",
          "type": "uint256"
        }
      ],
      "stateMutability": "view",
      "type": "function"
    },
    {
      "inputs": [
        {
          "internalType": "address",
          "name": "newOwner",
          "type": "address"
        }
      ],
      "name": "transferOwnership",
      "outputs": [],
      "stateMutability": "nonpayable",
      "type": "function"
    },
    {
      "inputs": [
        {
          "internalType": "uint256",
          "name": "_tokens",
          "type": "uint256"
        }
      ],
      "name": "unstake",
      "outputs": [],
      "stateMutability": "nonpayable",
      "type": "function"
    }
  ],
  "bytecode": "0x608060405234801561000f575f5ffd5b50604051610d48380380610d4883398101604081905261002e9161011c565b338061005357604051631e4fbdf760e01b81525f600482015260240160405180910390fd5b61005c816100b2565b5060017f9b779b17422d0df92223018b32b4d1fa46e071723d6817e2486d003becc55f0055600680546001600160a01b039384166001600160a01b0319918216179091556007805492909316911617905561014d565b5f80546001600160a01b038381166001600160a01b0319831681178455604051919092169283917f8be0079c531659141344cd1fd0a4f28419497f9722a3daafe3b4186f6b6457e09190a35050565b80516001600160a01b0381168114610117575f5ffd5b919050565b5f5f6040838503121561012d575f5ffd5b61013683610101565b915061014460208401610101565b90509250929050565b610bee8061015a5f395ff3fe608060405234801561000f575f5ffd5b50600436106100a6575f3560e01c8063715018a61161006e578063715018a6146100fe578063780d9c05146101065780637b1391a6146101195780638da5cb5b1461012d578063a694fc3a14610145578063f2fde38b14610158575f5ffd5b8063165defa4146100aa5780632e17de78146100c65780633d18b912146100db5780634e71d92d146100e357806360993b5b146100eb575b5f5ffd5b6100b360015481565b6040519081526020015b60405180910390f35b6100d96100d4366004610a68565b61016b565b005b6100b361039b565b6100d9610401565b6100d96100f9366004610a68565b61053d565b6100d96105fc565b6100d9610114366004610a7f565b61060d565b335f908152600360205260409020546100b3565b5f546001600160a01b03166040516100bd9190610aac565b6100d9610153366004610a68565b610637565b6100d9610166366004610a7f565b610888565b6101736108c2565b335f90815260036020526040902054806101c85760405162461bcd60e51b81526020600482015260116024820152702737903a37b5b2b7399039ba30b5b2b21760791b60448201526064015b60405180910390fd5b808211156102265760405162461bcd60e51b815260206004820152602560248201527f496e73756666696369656e74206e756d626572206f6620746f6b656e7320737460448201526430b5b2b21760d91b60648201526084016101bf565b61022f336108dd565b60065460405163a9059cbb60e01b81525f916001600160a01b03169063a9059cbb906102619033908790600401610ac0565b6020604051808303815f875af115801561027d573d5f5f3e3d5ffd5b505050506040513d601f19601f820116820180604052508101906102a19190610ad9565b9050806102c05760405162461bcd60e51b81526004016101bf90610af8565b335f90815260036020526040812080548592906102de908490610b3f565b9091555050600754604051632770a7eb60e21b81526001600160a01b0390911690639dc29fac906103159033908790600401610ac0565b5f604051808303815f87803b15801561032c575f5ffd5b505af115801561033e573d5f5f3e3d5ffd5b505050508260015f8282546103539190610b3f565b909155505060405183815233907fd64159257b870ca18044c7d992e6ae704d7933235f56406a6b5514776a3ffd12906020015b60405180910390a25050610398610981565b50565b335f90815260046020526040812054600254670de0b6b3a7640000916103c091610b3f565b335f908152600360205260409020546103d99190610b58565b6103e39190610b6f565b335f908152600560205260409020546103fc9190610b8e565b905090565b6104096108c2565b610412336108dd565b335f90815260056020526040902054806104645760405162461bcd60e51b81526020600482015260136024820152724e6f207265776172647320746f20636c61696d60681b60448201526064016101bf565b335f81815260056020526040808220829055600654905163a9059cbb60e01b815291926001600160a01b039091169163a9059cbb916104a7918690600401610ac0565b6020604051808303815f875af11580156104c3573d5f5f3e3d5ffd5b505050506040513d601f19601f820116820180604052508101906104e79190610ad9565b9050806105315760405162461bcd60e51b81526020600482015260186024820152774572726f72207768696c65207472616e7366657272696e6760401b60448201526064016101bf565b505061053b610981565b565b6008546001600160a01b031633146105bd5760405162461bcd60e51b815260206004820152603f60248201527f4f6e6c792074686520646f63756d656e7420726567697374726174696f6e206360448201527f6f6e74726163742063616e2063616c6c20746869732066756e6374696f6e2e0060648201526084016101bf565b60015415610398576001546105da82670de0b6b3a7640000610b58565b6105e49190610b6f565b60025f8282546105f49190610b8e565b909155505050565b61060461098e565b61053b5f6109ba565b61061561098e565b600880546001600160a01b0319166001600160a01b0392909216919091179055565b61063f6108c2565b600654604051636eb1769f60e11b81523360048201523060248201525f916001600160a01b03169063dd62ed3e90604401602060405180830381865afa15801561068b573d5f5f3e3d5ffd5b505050506040513d601f19601f820116820180604052508101906106af9190610ba1565b90508181101561071e5760405162461bcd60e51b815260206004820152603460248201527f496e73756666696369656e74206e756d626572206f6620746f6b656e73206170604482015273383937bb32b2103337b9103a3930b739b332b91760611b60648201526084016101bf565b610727336108dd565b6006546040516323b872dd60e01b8152336004820152306024820152604481018490525f916001600160a01b0316906323b872dd906064016020604051808303815f875af115801561077b573d5f5f3e3d5ffd5b505050506040513d601f19601f8201168201806040525081019061079f9190610ad9565b9050806107be5760405162461bcd60e51b81526004016101bf90610af8565b335f90815260036020526040812080548592906107dc908490610b8e565b90915550506007546040516340c10f1960e01b81526001600160a01b03909116906340c10f19906108139033908790600401610ac0565b5f604051808303815f87803b15801561082a575f5ffd5b505af115801561083c573d5f5f3e3d5ffd5b505050508260015f8282546108519190610b8e565b909155505060405183815233907f786db5fb866c6e2f40a2a9e3819a7a27c364c69f71a07eec4b2ceb1e3a65faab90602001610386565b61089061098e565b6001600160a01b0381166108b9575f604051631e4fbdf760e01b81526004016101bf9190610aac565b610398816109ba565b6108ca610a09565b60026108da6108d7610a2f565b90565b55565b6001600160a01b0381165f90815260046020526040902054600254670de0b6b3a76400009161090b91610b3f565b6001600160a01b0383165f9081526003602052604090205461092d9190610b58565b6109379190610b6f565b6001600160a01b0382165f908152600560205260408120805490919061095e908490610b8e565b90915550506002546001600160a01b039091165f90815260046020526040902055565b60016108da6108d7610a2f565b5f546001600160a01b0316331461053b573360405163118cdaa760e01b81526004016101bf9190610aac565b5f80546001600160a01b038381166001600160a01b0319831681178455604051919092169283917f8be0079c531659141344cd1fd0a4f28419497f9722a3daafe3b4186f6b6457e09190a35050565b610a11610a53565b1561053b57604051633ee5aeb560e01b815260040160405180910390fd5b7f9b779b17422d0df92223018b32b4d1fa46e071723d6817e2486d003becc55f0090565b5f6002610a616108d7610a2f565b5414919050565b5f60208284031215610a78575f5ffd5b5035919050565b5f60208284031215610a8f575f5ffd5b81356001600160a01b0381168114610aa5575f5ffd5b9392505050565b6001600160a01b0391909116815260200190565b6001600160a01b03929092168252602082015260400190565b5f60208284031215610ae9575f5ffd5b81518015158114610aa5575f5ffd5b60208082526019908201527822b93937b9103bb434b632903a3930b739b332b93934b7339760391b604082015260600190565b634e487b7160e01b5f52601160045260245ffd5b81810381811115610b5257610b52610b2b565b92915050565b8082028115828204841417610b5257610b52610b2b565b5f82610b8957634e487b7160e01b5f52601260045260245ffd5b500490565b80820180821115610b5257610b52610b2b565b5f60208284031215610bb1575f5ffd5b505191905056fea2646970667358221220460336a2940cd4d3616697a8d5f502bfc63df88b04ac3558d8610433860816d364736f6c634300081c0033",
  "linkReferences": {},
  "deployedLinkReferences": {},
  "immutableReferences": {},
  "inputSourceName": "project/contracts/DocStaking.sol",
  "buildInfoId": "solc-0_8_28-12cf6351062c2901ebc9457afea34be2ad900f64"
}